{
  "_format": "hh-sol-artifact-1",
  "contractName": "AlertVerifier",
  "sourceName": "contracts/AlertVerifier.sol",
  "abi": [
    {
      "inputs": [],
      "stateMutability": "nonpayable",
      "type": "constructor"
    },
    {
      "anonymous": false,
      "inputs": [
        {
          "indexed": true,
          "internalType": "address",
          "name": "verifier",
          "type": "address"
        },
        {
          "indexed": true,
          "internalType": "uint256",
          "name": "id",
          "type": "uint256"
        }
      ],
      "name": "AnswerGiven",
      "type": "event"
    },
    {
      "anonymous": false,
      "inputs": [
        {
          "indexed": true,
          "internalType": "address",
          "name": "verifier",
          "type": "address"
        },
        {
          "indexed": true,
          "internalType": "uint256",
          "name": "requestId",
          "type": "uint256"
        }
      ],
      "name": "VerificationTask",
      "type": "event"
    },
    {
      "inputs": [
        {
          "internalType": "address",
          "name": "",
          "type": "address"
        }
      ],
      "name": "activeVerifierInfo",
      "outputs": [
        {
          "internalType": "uint256",
          "name": "activeVerificationCount",
          "type": "uint256"
        },
        {
          "internalType": "bool",
          "name": "activenessRequest",
          "type": "bool"
        },
        {
          "internalType": "uint256",
          "name": "balance",
          "type": "uint256"
        }
      ],
      "stateMutability": "view",
      "type": "function"
    },
    {
      "inputs": [],
      "name": "beActiveVerifier",
      "outputs": [],
      "stateMutability": "payable",
      "type": "function"
    },
    {
      "inputs": [
        {
          "internalType": "bytes32",
          "name": "messageHash",
          "type": "bytes32"
        },
        {
          "internalType": "string",
          "name": "dataUrl",
          "type": "string"
        },
        {
          "internalType": "uint256",
          "name": "id",
          "type": "uint256"
        }
      ],
      "name": "broadcastAlert",
      "outputs": [],
      "stateMutability": "payable",
      "type": "function"
    },
    {
      "inputs": [
        {
          "internalType": "uint256",
          "name": "requstIndex",
          "type": "uint256"
        }
      ],
      "name": "endRequest",
      "outputs": [],
      "stateMutability": "nonpayable",
      "type": "function"
    },
    {
      "inputs": [
        {
          "internalType": "uint256",
          "name": "index",
          "type": "uint256"
        }
      ],
      "name": "fetchVerifierAddresses",
      "outputs": [
        {
          "components": [
            {
              "internalType": "address",
              "name": "verifierAddress",
              "type": "address"
            },
            {
              "internalType": "enum AlertVerifier.Answer",
              "name": "answer",
              "type": "uint8"
            }
          ],
          "internalType": "struct AlertVerifier.Verifier[]",
          "name": "",
          "type": "tuple[]"
        }
      ],
      "stateMutability": "view",
      "type": "function"
    },
    {
      "inputs": [
        {
          "internalType": "uint256",
          "name": "requestId",
          "type": "uint256"
        },
        {
          "internalType": "bool",
          "name": "answer",
          "type": "bool"
        }
      ],
      "name": "giveAnswer",
      "outputs": [],
      "stateMutability": "nonpayable",
      "type": "function"
    },
    {
      "inputs": [
        {
          "internalType": "uint256",
          "name": "id",
          "type": "uint256"
        },
        {
          "internalType": "uint256",
          "name": "random",
          "type": "uint256"
        }
      ],
      "name": "handleRandom",
      "outputs": [],
      "stateMutability": "nonpayable",
      "type": "function"
    },
    {
      "inputs": [],
      "name": "mockWithdrawAllBalance",
      "outputs": [],
      "stateMutability": "nonpayable",
      "type": "function"
    },
    {
      "inputs": [],
      "name": "owner",
      "outputs": [
        {
          "internalType": "address",
          "name": "",
          "type": "address"
        }
      ],
      "stateMutability": "view",
      "type": "function"
    },
    {
      "inputs": [
        {
          "internalType": "uint256",
          "name": "",
          "type": "uint256"
        }
      ],
      "name": "requests",
      "outputs": [
        {
          "internalType": "string",
          "name": "dataUrl",
          "type": "string"
        },
        {
          "internalType": "uint256",
          "name": "lastAnswerTime",
          "type": "uint256"
        },
        {
          "internalType": "bool",
          "name": "isEnded",
          "type": "bool"
        },
        {
          "internalType": "uint256",
          "name": "yesCount",
          "type": "uint256"
        },
        {
          "internalType": "uint256",
          "name": "noCount",
          "type": "uint256"
        },
        {
          "internalType": "uint256",
          "name": "rewardPool",
          "type": "uint256"
        },
        {
          "internalType": "bytes32",
          "name": "messageHash",
          "type": "bytes32"
        },
        {
          "internalType": "uint256",
          "name": "randomSeed",
          "type": "uint256"
        },
        {
          "internalType": "uint256",
          "name": "id",
          "type": "uint256"
        }
      ],
      "stateMutability": "view",
      "type": "function"
    },
    {
      "inputs": [],
      "name": "scytaleContractAddress",
      "outputs": [
        {
          "internalType": "address",
          "name": "",
          "type": "address"
        }
      ],
      "stateMutability": "view",
      "type": "function"
    },
    {
      "inputs": [
        {
          "internalType": "address",
          "name": "_scytaleContractAddress",
          "type": "address"
        }
      ],
      "name": "setScytaleContractAddress",
      "outputs": [],
      "stateMutability": "nonpayable",
      "type": "function"
    },
    {
      "inputs": [
        {
          "internalType": "address",
          "name": "_vrfAddress",
          "type": "address"
        }
      ],
      "name": "setVRFAddress",
      "outputs": [],
      "stateMutability": "nonpayable",
      "type": "function"
    },
    {
      "inputs": [],
      "name": "stopRequestingVerifications",
      "outputs": [],
      "stateMutability": "nonpayable",
      "type": "function"
    },
    {
      "inputs": [],
      "name": "viewAllActiveVerifiers",
      "outputs": [
        {
          "internalType": "address[]",
          "name": "",
          "type": "address[]"
        }
      ],
      "stateMutability": "view",
      "type": "function"
    }
  ],
  "bytecode": "0x60806040526000600360006101000a81548173ffffffffffffffffffffffffffffffffffffffff021916908373ffffffffffffffffffffffffffffffffffffffff16021790555034801561005257600080fd5b506000600160006101000a81548173ffffffffffffffffffffffffffffffffffffffff021916908373ffffffffffffffffffffffffffffffffffffffff160217905550600160009054906101000a900473ffffffffffffffffffffffffffffffffffffffff166000806101000a81548173ffffffffffffffffffffffffffffffffffffffff021916908373ffffffffffffffffffffffffffffffffffffffff16021790555033600260006101000a81548173ffffffffffffffffffffffffffffffffffffffff021916908373ffffffffffffffffffffffffffffffffffffffff160217905550613193806101476000396000f3fe6080604052600436106100e75760003560e01c806381d12c581161008a578063b51ccd9011610059578063b51ccd90146102c8578063d593c1f5146102f1578063f36b87961461031a578063fd05b2e614610324576100e7565b806381d12c58146102185780638da5cb5b1461025d578063a90420d014610288578063b2bb4f91146102b1576100e7565b80633575494c116100c65780633575494c1461016b5780633a6b50b01461019657806343db5670146101d35780634efbc0b2146101fc576100e7565b806213b697146100ec57806303f3f2b41461012b57806317f4404814610142575b600080fd5b3480156100f857600080fd5b50610113600480360381019061010e9190612079565b61034f565b604051610122939291906120da565b60405180910390f35b34801561013757600080fd5b50610140610386565b005b34801561014e57600080fd5b506101696004803603810190610164919061213d565b610505565b005b34801561017757600080fd5b50610180610c78565b60405161018d9190612228565b60405180910390f35b3480156101a257600080fd5b506101bd60048036038101906101b8919061213d565b610c89565b6040516101ca919061239f565b60405180910390f35b3480156101df57600080fd5b506101fa60048036038101906101f591906123ed565b610d9a565b005b610216600480360381019061021191906124c8565b6110f5565b005b34801561022457600080fd5b5061023f600480360381019061023a919061213d565b6112a0565b604051610254999897969594939291906125db565b60405180910390f35b34801561026957600080fd5b50610272611393565b60405161027f919061267e565b60405180910390f35b34801561029457600080fd5b506102af60048036038101906102aa9190612079565b6113b9565b005b3480156102bd57600080fd5b506102c66114ef565b005b3480156102d457600080fd5b506102ef60048036038101906102ea9190612699565b6115c8565b005b3480156102fd57600080fd5b5061031860048036038101906103139190612079565b6116f3565b005b6103226117c7565b005b34801561033057600080fd5b506103396119a3565b604051610346919061267e565b60405180910390f35b60076020528060005260406000206000915090508060000154908060010160009054906101000a900460ff16908060020154905083565b60003390506103966005826119c9565b6103d5576040517f08c379a00000000000000000000000000000000000000000000000000000000081526004016103cc90612725565b60405180910390fd5b6103e06005826119f9565b506000600760008373ffffffffffffffffffffffffffffffffffffffff1673ffffffffffffffffffffffffffffffffffffffff16815260200190815260200160002060010160006101000a81548160ff0219169083151502179055506000600760008373ffffffffffffffffffffffffffffffffffffffff1673ffffffffffffffffffffffffffffffffffffffff1681526020019081526020016000206002015490506000600760008473ffffffffffffffffffffffffffffffffffffffff1673ffffffffffffffffffffffffffffffffffffffff168152602001908152602001600020600201819055508173ffffffffffffffffffffffffffffffffffffffff166108fc829081150290604051600060405180830381858888f19350505050505050565b60006008828154811061051b5761051a612745565b5b90600052602060002090600a020160405180610140016040529081600082018054610545906127a3565b80601f0160208091040260200160405190810160405280929190818152602001828054610571906127a3565b80156105be5780601f10610593576101008083540402835291602001916105be565b820191906000526020600020905b8154815290600101906020018083116105a157829003601f168201915b50505050508152602001600182015481526020016002820160009054906101000a900460ff1615151515815260200160038201548152602001600482015481526020016005820154815260200160068201548152602001600782015481526020016008820154815260200160098201805480602002602001604051908101604052809291908181526020016000905b8282101561070c578382906000526020600020016040518060400160405290816000820160009054906101000a900473ffffffffffffffffffffffffffffffffffffffff1673ffffffffffffffffffffffffffffffffffffffff1673ffffffffffffffffffffffffffffffffffffffff1681526020016000820160149054906101000a900460ff1660028111156106e7576106e6612276565b5b60028111156106f9576106f8612276565b5b815250508152602001906001019061064d565b5050505081525050905060006008838154811061072c5761072b612745565b5b90600052602060002090600a0201905060008261012001519050600015158360400151151514610791576040517f08c379a000000000000000000000000000000000000000000000000000000000815260040161078890612820565b60405180910390fd5b4283602001511115806107b757506003836080015184606001516107b5919061286f565b145b80156107c857506000836020015114155b610807576040517f08c379a00000000000000000000000000000000000000000000000000000000081526004016107fe906128ef565b60405180910390fd5b60018260020160006101000a81548160ff021916908315150217905550600080846080015185606001511115610847576001915084606001519050610853565b60029150846080015190505b6000808660a0015190506000808860a00151905060005b8751811015610af657600088828151811061088857610887612745565b5b6020026020010151600001519050600760008273ffffffffffffffffffffffffffffffffffffffff1673ffffffffffffffffffffffffffffffffffffffff168152602001908152602001600020600001600081546108e59061290f565b919050819055508760028111156108ff576108fe612276565b5b89838151811061091257610911612745565b5b60200260200101516020015160028111156109305761092f612276565b5b036109e157600087846109439190612967565b8161094e919061286f565b9050878661095c9190612967565b81610967919061286f565b905087866109759190612967565b85610980919061286f565b945080600760008473ffffffffffffffffffffffffffffffffffffffff1673ffffffffffffffffffffffffffffffffffffffff16815260200190815260200160002060020160008282546109d4919061286f565b9250508190555050610ad9565b60008760036109f09190612998565b6064601e66038d7ea4c68000610a0691906129cc565b610a109190612967565b610a1a9190612967565b90506000600760008473ffffffffffffffffffffffffffffffffffffffff1673ffffffffffffffffffffffffffffffffffffffff16815260200190815260200160002060020154905080821115610a6f578091505b81600760008573ffffffffffffffffffffffffffffffffffffffff1673ffffffffffffffffffffffffffffffffffffffff1681526020019081526020016000206002016000828254610ac19190612998565b925050819055508188610ad4919061286f565b975050505b610ae281611a29565b508080610aee90612a0e565b91505061086a565b50818484610b04919061286f565b610b0e9190612998565b60098190555060016002811115610b2857610b27612276565b5b866002811115610b3b57610b3a612276565b5b03610bd85760008054906101000a900473ffffffffffffffffffffffffffffffffffffffff1673ffffffffffffffffffffffffffffffffffffffff1663f07488af8a610100015160016040518363ffffffff1660e01b8152600401610ba1929190612a56565b600060405180830381600087803b158015610bbb57600080fd5b505af1158015610bcf573d6000803e3d6000fd5b50505050610c6c565b60008054906101000a900473ffffffffffffffffffffffffffffffffffffffff1673ffffffffffffffffffffffffffffffffffffffff1663f07488af8a610100015160006040518363ffffffff1660e01b8152600401610c39929190612a56565b600060405180830381600087803b158015610c5357600080fd5b505af1158015610c67573d6000803e3d6000fd5b505050505b50505050505050505050565b6060610c846005611af6565b905090565b606060088281548110610c9f57610c9e612745565b5b90600052602060002090600a0201600901805480602002602001604051908101604052809291908181526020016000905b82821015610d8f578382906000526020600020016040518060400160405290816000820160009054906101000a900473ffffffffffffffffffffffffffffffffffffffff1673ffffffffffffffffffffffffffffffffffffffff1673ffffffffffffffffffffffffffffffffffffffff1681526020016000820160149054906101000a900460ff166002811115610d6a57610d69612276565b5b6002811115610d7c57610d7b612276565b5b8152505081526020019060010190610cd0565b505050509050919050565b4260088381548110610daf57610dae612745565b5b90600052602060002090600a020160010154118015610df45750600060088381548110610ddf57610dde612745565b5b90600052602060002090600a02016001015414155b610e33576040517f08c379a0000000000000000000000000000000000000000000000000000000008152600401610e2a90612af1565b60405180910390fd5b60003390506000610f4b60088581548110610e5157610e50612745565b5b90600052602060002090600a0201600901805480602002602001604051908101604052809291908181526020016000905b82821015610f41578382906000526020600020016040518060400160405290816000820160009054906101000a900473ffffffffffffffffffffffffffffffffffffffff1673ffffffffffffffffffffffffffffffffffffffff1673ffffffffffffffffffffffffffffffffffffffff1681526020016000820160149054906101000a900460ff166002811115610f1c57610f1b612276565b5b6002811115610f2e57610f2d612276565b5b8152505081526020019060010190610e82565b5050505083611b17565b905060011515831515036110045760088481548110610f6d57610f6c612745565b5b90600052602060002090600a020160030160008154610f8b90612a0e565b91905081905550600160088581548110610fa857610fa7612745565b5b90600052602060002090600a02016009018281548110610fcb57610fca612745565b5b9060005260206000200160000160146101000a81548160ff02191690836002811115610ffa57610ff9612276565b5b02179055506110ab565b6008848154811061101857611017612745565b5b90600052602060002090600a02016004016000815461103690612a0e565b9190508190555060026008858154811061105357611052612745565b5b90600052602060002090600a0201600901828154811061107657611075612745565b5b9060005260206000200160000160146101000a81548160ff021916908360028111156110a5576110a4612276565b5b02179055505b808273ffffffffffffffffffffffffffffffffffffffff167f0e1d04d6b4b0d30b52589fba24dbffbdd3937bc3b3efc36109b66ff417f6a53e60405160405180910390a350505050565b600160009054906101000a900473ffffffffffffffffffffffffffffffffffffffff1673ffffffffffffffffffffffffffffffffffffffff163373ffffffffffffffffffffffffffffffffffffffff1614611185576040517f08c379a000000000000000000000000000000000000000000000000000000000815260040161117c90612b5d565b60405180910390fd5b600060086001816001815401808255809150500390600052602060002090600a0201905084816006018190555083838260000191826111c5929190612d63565b503481600501819055508181600801819055506000600360009054906101000a900473ffffffffffffffffffffffffffffffffffffffff1673ffffffffffffffffffffffffffffffffffffffff1663da9f75506040518163ffffffff1660e01b81526004016020604051808303816000875af1158015611249573d6000803e3d6000fd5b505050506040513d601f19601f8201168201806040525081019061126d9190612e48565b905060016008805490506112819190612998565b6004600083815260200190815260200160002081905550505050505050565b600881815481106112b057600080fd5b90600052602060002090600a02016000915090508060000180546112d3906127a3565b80601f01602080910402602001604051908101604052809291908181526020018280546112ff906127a3565b801561134c5780601f106113215761010080835404028352916020019161134c565b820191906000526020600020905b81548152906001019060200180831161132f57829003601f168201915b5050505050908060010154908060020160009054906101000a900460ff16908060030154908060040154908060050154908060060154908060070154908060080154905089565b600260009054906101000a900473ffffffffffffffffffffffffffffffffffffffff1681565b3373ffffffffffffffffffffffffffffffffffffffff16600260009054906101000a900473ffffffffffffffffffffffffffffffffffffffff1673ffffffffffffffffffffffffffffffffffffffff1614611449576040517f08c379a000000000000000000000000000000000000000000000000000000000815260040161144090612ec1565b60405180910390fd5b80600160006101000a81548173ffffffffffffffffffffffffffffffffffffffff021916908373ffffffffffffffffffffffffffffffffffffffff160217905550600160009054906101000a900473ffffffffffffffffffffffffffffffffffffffff166000806101000a81548173ffffffffffffffffffffffffffffffffffffffff021916908373ffffffffffffffffffffffffffffffffffffffff16021790555050565b3373ffffffffffffffffffffffffffffffffffffffff16600260009054906101000a900473ffffffffffffffffffffffffffffffffffffffff1673ffffffffffffffffffffffffffffffffffffffff161461157f576040517f08c379a000000000000000000000000000000000000000000000000000000000815260040161157690612ec1565b60405180910390fd5b3373ffffffffffffffffffffffffffffffffffffffff166108fc479081150290604051600060405180830381858888f193505050501580156115c5573d6000803e3d6000fd5b50565b600360009054906101000a900473ffffffffffffffffffffffffffffffffffffffff1673ffffffffffffffffffffffffffffffffffffffff163373ffffffffffffffffffffffffffffffffffffffff1614611658576040517f08c379a000000000000000000000000000000000000000000000000000000000815260040161164f90612f2d565b60405180910390fd5b60006004600084815260200190815260200160002054905068056bc75e2d63100000826116859190612f4d565b6008828154811061169957611698612745565b5b90600052602060002090600a0201600701819055506116b88282611bde565b60b4426116c5919061286f565b600882815481106116d9576116d8612745565b5b90600052602060002090600a020160010181905550505050565b3373ffffffffffffffffffffffffffffffffffffffff16600260009054906101000a900473ffffffffffffffffffffffffffffffffffffffff1673ffffffffffffffffffffffffffffffffffffffff1614611783576040517f08c379a000000000000000000000000000000000000000000000000000000000815260040161177a90612ec1565b60405180910390fd5b80600360006101000a81548173ffffffffffffffffffffffffffffffffffffffff021916908373ffffffffffffffffffffffffffffffffffffffff16021790555050565b600033905066038d7ea4c680003414611815576040517f08c379a000000000000000000000000000000000000000000000000000000000815260040161180c90612fca565b60405180910390fd5b6000600760008373ffffffffffffffffffffffffffffffffffffffff1673ffffffffffffffffffffffffffffffffffffffff168152602001908152602001600020600201541461189a576040517f08c379a000000000000000000000000000000000000000000000000000000000815260040161189190613036565b60405180910390fd5b600015156118a96005836119c9565b1515146118eb576040517f08c379a00000000000000000000000000000000000000000000000000000000081526004016118e2906130a2565b60405180910390fd5b6001600760008373ffffffffffffffffffffffffffffffffffffffff1673ffffffffffffffffffffffffffffffffffffffff16815260200190815260200160002060010160006101000a81548160ff021916908315150217905550611951600582611d73565b5066038d7ea4c68000600760008373ffffffffffffffffffffffffffffffffffffffff1673ffffffffffffffffffffffffffffffffffffffff1681526020019081526020016000206002018190555050565b600160009054906101000a900473ffffffffffffffffffffffffffffffffffffffff1681565b60006119f1836000018373ffffffffffffffffffffffffffffffffffffffff1660001b611da3565b905092915050565b6000611a21836000018373ffffffffffffffffffffffffffffffffffffffff1660001b611dc6565b905092915050565b6000600760008373ffffffffffffffffffffffffffffffffffffffff1673ffffffffffffffffffffffffffffffffffffffff1681526020019081526020016000209050600015158160010160009054906101000a900460ff16151503611af25760008160020154118015611aa1575060008160000154145b15611af157600081600201549050600082600201819055508273ffffffffffffffffffffffffffffffffffffffff166108fc829081150290604051600060405180830381858888f1935050505050505b5b5050565b60606000611b0683600001611eda565b905060608190508092505050919050565b600080600090505b8351811015611b95578273ffffffffffffffffffffffffffffffffffffffff16848281518110611b5257611b51612745565b5b60200260200101516000015173ffffffffffffffffffffffffffffffffffffffff1603611b825780915050611bd8565b8080611b8d90612a0e565b915050611b1f565b506000611bd7576040517f08c379a0000000000000000000000000000000000000000000000000000000008152600401611bce9061310e565b60405180910390fd5b5b92915050565b6000611bea6005611f36565b905060005b6003811015611d6d57600082856944fc80938c5ee53b593d84611c1291906129cc565b611c1c919061286f565b611c269190612f4d565b90506000611c35600583611f4b565b9050600060088681548110611c4d57611c4c612745565b5b90600052602060002090600a020160090160018160018154018082558091505003906000526020600020019050818160000160006101000a81548173ffffffffffffffffffffffffffffffffffffffff021916908373ffffffffffffffffffffffffffffffffffffffff160217905550858273ffffffffffffffffffffffffffffffffffffffff167f6ec4107f8711c66986c3a6ef304e309eb4b7b83d4d770c2e79b1b163d908c4ad60405160405180910390a3600760008373ffffffffffffffffffffffffffffffffffffffff1673ffffffffffffffffffffffffffffffffffffffff16815260200190815260200160002060000160008154611d5090612a0e565b919050819055505050508080611d6590612a0e565b915050611bef565b50505050565b6000611d9b836000018373ffffffffffffffffffffffffffffffffffffffff1660001b611f65565b905092915050565b600080836001016000848152602001908152602001600020541415905092915050565b60008083600101600084815260200190815260200160002054905060008114611ece576000600182611df89190612998565b9050600060018660000180549050611e109190612998565b9050818114611e7f576000866000018281548110611e3157611e30612745565b5b9060005260206000200154905080876000018481548110611e5557611e54612745565b5b90600052602060002001819055508387600101600083815260200190815260200160002081905550505b85600001805480611e9357611e9261312e565b5b600190038181906000526020600020016000905590558560010160008681526020019081526020016000206000905560019350505050611ed4565b60009150505b92915050565b606081600001805480602002602001604051908101604052809291908181526020018280548015611f2a57602002820191906000526020600020905b815481526020019060010190808311611f16575b50505050509050919050565b6000611f4482600001611fd5565b9050919050565b6000611f5a8360000183611fe6565b60001c905092915050565b6000611f718383611da3565b611fca578260000182908060018154018082558091505060019003906000526020600020016000909190919091505582600001805490508360010160008481526020019081526020016000208190555060019050611fcf565b600090505b92915050565b600081600001805490509050919050565b6000826000018281548110611ffe57611ffd612745565b5b9060005260206000200154905092915050565b600080fd5b600080fd5b600073ffffffffffffffffffffffffffffffffffffffff82169050919050565b60006120468261201b565b9050919050565b6120568161203b565b811461206157600080fd5b50565b6000813590506120738161204d565b92915050565b60006020828403121561208f5761208e612011565b5b600061209d84828501612064565b91505092915050565b6000819050919050565b6120b9816120a6565b82525050565b60008115159050919050565b6120d4816120bf565b82525050565b60006060820190506120ef60008301866120b0565b6120fc60208301856120cb565b61210960408301846120b0565b949350505050565b61211a816120a6565b811461212557600080fd5b50565b60008135905061213781612111565b92915050565b60006020828403121561215357612152612011565b5b600061216184828501612128565b91505092915050565b600081519050919050565b600082825260208201905092915050565b6000819050602082019050919050565b61219f8161203b565b82525050565b60006121b18383612196565b60208301905092915050565b6000602082019050919050565b60006121d58261216a565b6121df8185612175565b93506121ea83612186565b8060005b8381101561221b57815161220288826121a5565b975061220d836121bd565b9250506001810190506121ee565b5085935050505092915050565b6000602082019050818103600083015261224281846121ca565b905092915050565b600081519050919050565b600082825260208201905092915050565b6000819050602082019050919050565b7f4e487b7100000000000000000000000000000000000000000000000000000000600052602160045260246000fd5b600381106122b6576122b5612276565b5b50565b60008190506122c7826122a5565b919050565b60006122d7826122b9565b9050919050565b6122e7816122cc565b82525050565b6040820160008201516123036000850182612196565b50602082015161231660208501826122de565b50505050565b600061232883836122ed565b60408301905092915050565b6000602082019050919050565b600061234c8261224a565b6123568185612255565b935061236183612266565b8060005b83811015612392578151612379888261231c565b975061238483612334565b925050600181019050612365565b5085935050505092915050565b600060208201905081810360008301526123b98184612341565b905092915050565b6123ca816120bf565b81146123d557600080fd5b50565b6000813590506123e7816123c1565b92915050565b6000806040838503121561240457612403612011565b5b600061241285828601612128565b9250506020612423858286016123d8565b9150509250929050565b6000819050919050565b6124408161242d565b811461244b57600080fd5b50565b60008135905061245d81612437565b92915050565b600080fd5b600080fd5b600080fd5b60008083601f84011261248857612487612463565b5b8235905067ffffffffffffffff8111156124a5576124a4612468565b5b6020830191508360018202830111156124c1576124c061246d565b5b9250929050565b600080600080606085870312156124e2576124e1612011565b5b60006124f08782880161244e565b945050602085013567ffffffffffffffff81111561251157612510612016565b5b61251d87828801612472565b9350935050604061253087828801612128565b91505092959194509250565b600081519050919050565b600082825260208201905092915050565b60005b8381101561257657808201518184015260208101905061255b565b60008484015250505050565b6000601f19601f8301169050919050565b600061259e8261253c565b6125a88185612547565b93506125b8818560208601612558565b6125c181612582565b840191505092915050565b6125d58161242d565b82525050565b60006101208201905081810360008301526125f6818c612593565b9050612605602083018b6120b0565b612612604083018a6120cb565b61261f60608301896120b0565b61262c60808301886120b0565b61263960a08301876120b0565b61264660c08301866125cc565b61265360e08301856120b0565b6126616101008301846120b0565b9a9950505050505050505050565b6126788161203b565b82525050565b6000602082019050612693600083018461266f565b92915050565b600080604083850312156126b0576126af612011565b5b60006126be85828601612128565b92505060206126cf85828601612128565b9150509250929050565b7f6e6f742076657269666965720000000000000000000000000000000000000000600082015250565b600061270f600c83612547565b915061271a826126d9565b602082019050919050565b6000602082019050818103600083015261273e81612702565b9050919050565b7f4e487b7100000000000000000000000000000000000000000000000000000000600052603260045260246000fd5b7f4e487b7100000000000000000000000000000000000000000000000000000000600052602260045260246000fd5b600060028204905060018216806127bb57607f821691505b6020821081036127ce576127cd612774565b5b50919050565b7f7265717565737420616c726561647920656e6465640000000000000000000000600082015250565b600061280a601583612547565b9150612815826127d4565b602082019050919050565b60006020820190508181036000830152612839816127fd565b9050919050565b7f4e487b7100000000000000000000000000000000000000000000000000000000600052601160045260246000fd5b600061287a826120a6565b9150612885836120a6565b925082820190508082111561289d5761289c612840565b5b92915050565b7f74696d6520686173206e6f7420636f6d65207965740000000000000000000000600082015250565b60006128d9601583612547565b91506128e4826128a3565b602082019050919050565b60006020820190508181036000830152612908816128cc565b9050919050565b600061291a826120a6565b91506000820361292d5761292c612840565b5b600182039050919050565b7f4e487b7100000000000000000000000000000000000000000000000000000000600052601260045260246000fd5b6000612972826120a6565b915061297d836120a6565b92508261298d5761298c612938565b5b828204905092915050565b60006129a3826120a6565b91506129ae836120a6565b92508282039050818111156129c6576129c5612840565b5b92915050565b60006129d7826120a6565b91506129e2836120a6565b92508282026129f0816120a6565b91508282048414831517612a0757612a06612840565b5b5092915050565b6000612a19826120a6565b91507fffffffffffffffffffffffffffffffffffffffffffffffffffffffffffffffff8203612a4b57612a4a612840565b5b600182019050919050565b6000604082019050612a6b60008301856120b0565b612a7860208301846120cb565b9392505050565b7f74696d6520706173736564206f72206e6f7420696e697469616c697a6564207960008201527f6574000000000000000000000000000000000000000000000000000000000000602082015250565b6000612adb602283612547565b9150612ae682612a7f565b604082019050919050565b60006020820190508181036000830152612b0a81612ace565b9050919050565b7f6e6f742073637974616c6520636f6e7472616374000000000000000000000000600082015250565b6000612b47601483612547565b9150612b5282612b11565b602082019050919050565b60006020820190508181036000830152612b7681612b3a565b9050919050565b600082905092915050565b7f4e487b7100000000000000000000000000000000000000000000000000000000600052604160045260246000fd5b60008190508160005260206000209050919050565b60006020601f8301049050919050565b600082821b905092915050565b600060088302612c197fffffffffffffffffffffffffffffffffffffffffffffffffffffffffffffffff82612bdc565b612c238683612bdc565b95508019841693508086168417925050509392505050565b6000819050919050565b6000612c60612c5b612c56846120a6565b612c3b565b6120a6565b9050919050565b6000819050919050565b612c7a83612c45565b612c8e612c8682612c67565b848454612be9565b825550505050565b600090565b612ca3612c96565b612cae818484612c71565b505050565b5b81811015612cd257612cc7600082612c9b565b600181019050612cb4565b5050565b601f821115612d1757612ce881612bb7565b612cf184612bcc565b81016020851015612d00578190505b612d14612d0c85612bcc565b830182612cb3565b50505b505050565b600082821c905092915050565b6000612d3a60001984600802612d1c565b1980831691505092915050565b6000612d538383612d29565b9150826002028217905092915050565b612d6d8383612b7d565b67ffffffffffffffff811115612d8657612d85612b88565b5b612d9082546127a3565b612d9b828285612cd6565b6000601f831160018114612dca5760008415612db8578287013590505b612dc28582612d47565b865550612e2a565b601f198416612dd886612bb7565b60005b82811015612e0057848901358255600182019150602085019450602081019050612ddb565b86831015612e1d5784890135612e19601f891682612d29565b8355505b6001600288020188555050505b50505050505050565b600081519050612e4281612111565b92915050565b600060208284031215612e5e57612e5d612011565b5b6000612e6c84828501612e33565b91505092915050565b7f6e6f74206f776e65720000000000000000000000000000000000000000000000600082015250565b6000612eab600983612547565b9150612eb682612e75565b602082019050919050565b60006020820190508181036000830152612eda81612e9e565b9050919050565b7f6e6f742076726620636f6e747261637400000000000000000000000000000000600082015250565b6000612f17601083612547565b9150612f2282612ee1565b602082019050919050565b60006020820190508181036000830152612f4681612f0a565b9050919050565b6000612f58826120a6565b9150612f63836120a6565b925082612f7357612f72612938565b5b828206905092915050565b7f6e6f7420656e6f756768207374616b6500000000000000000000000000000000600082015250565b6000612fb4601083612547565b9150612fbf82612f7e565b602082019050919050565b60006020820190508181036000830152612fe381612fa7565b9050919050565b7f616c726561647920686176652062616c616e6365000000000000000000000000600082015250565b6000613020601483612547565b915061302b82612fea565b602082019050919050565b6000602082019050818103600083015261304f81613013565b9050919050565b7f616c726561647920766572696669657200000000000000000000000000000000600082015250565b600061308c601083612547565b915061309782613056565b602082019050919050565b600060208201905081810360008301526130bb8161307f565b9050919050565b7f6e6f7420766572696669657220696e2074686174207265717565737400000000600082015250565b60006130f8601c83612547565b9150613103826130c2565b602082019050919050565b60006020820190508181036000830152613127816130eb565b9050919050565b7f4e487b7100000000000000000000000000000000000000000000000000000000600052603160045260246000fdfea26469706673582212208e078ac7fd16a44c6c2947fe392cd078227f4c26cf96b775815c8978317a7f8464736f6c63430008130033",
  "linkReferences": {},
  "deployedLinkReferences": {}
}