{
  "_format": "hh-sol-artifact-1",
  "contractName": "Scytale",
  "sourceName": "contracts/Scytale.sol",
  "abi": [
    {
      "inputs": [],
      "stateMutability": "nonpayable",
      "type": "constructor"
    },
    {
      "anonymous": false,
      "inputs": [
        {
          "indexed": true,
          "internalType": "address",
          "name": "sender",
          "type": "address"
        },
        {
          "indexed": true,
          "internalType": "bytes32",
          "name": "messageHash",
          "type": "bytes32"
        },
        {
          "indexed": true,
          "internalType": "string",
          "name": "receiverKey",
          "type": "string"
        }
      ],
      "name": "AcceptedMessage",
      "type": "event"
    },
    {
      "anonymous": false,
      "inputs": [
        {
          "indexed": true,
          "internalType": "address",
          "name": "storeNodeAddress",
          "type": "address"
        },
        {
          "indexed": true,
          "internalType": "bytes32",
          "name": "messageHash",
          "type": "bytes32"
        }
      ],
      "name": "MessageBroadcasted",
      "type": "event"
    },
    {
      "anonymous": false,
      "inputs": [
        {
          "indexed": true,
          "internalType": "address",
          "name": "nodeAddress",
          "type": "address"
        },
        {
          "indexed": false,
          "internalType": "string",
          "name": "apiUrl",
          "type": "string"
        }
      ],
      "name": "StoreNodeInitialized",
      "type": "event"
    },
    {
      "inputs": [],
      "name": "FREE_RIDER_ALERT_DEPOSIT",
      "outputs": [
        {
          "internalType": "uint256",
          "name": "",
          "type": "uint256"
        }
      ],
      "stateMutability": "view",
      "type": "function"
    },
    {
      "inputs": [],
      "name": "FREE_RIDER_ALERT_MIN_TIME",
      "outputs": [
        {
          "internalType": "uint256",
          "name": "",
          "type": "uint256"
        }
      ],
      "stateMutability": "view",
      "type": "function"
    },
    {
      "inputs": [],
      "name": "FREE_RIDER_SLASH_AMOUNT",
      "outputs": [
        {
          "internalType": "uint256",
          "name": "",
          "type": "uint256"
        }
      ],
      "stateMutability": "view",
      "type": "function"
    },
    {
      "inputs": [],
      "name": "MIN_STAKE_AMOUNT",
      "outputs": [
        {
          "internalType": "uint256",
          "name": "",
          "type": "uint256"
        }
      ],
      "stateMutability": "view",
      "type": "function"
    },
    {
      "inputs": [],
      "name": "STAKE_AMOUNT",
      "outputs": [
        {
          "internalType": "uint256",
          "name": "",
          "type": "uint256"
        }
      ],
      "stateMutability": "view",
      "type": "function"
    },
    {
      "inputs": [
        {
          "internalType": "bytes32",
          "name": "_messageHash",
          "type": "bytes32"
        },
        {
          "internalType": "string",
          "name": "_dataUrl",
          "type": "string"
        }
      ],
      "name": "acceptMessage",
      "outputs": [],
      "stateMutability": "nonpayable",
      "type": "function"
    },
    {
      "inputs": [
        {
          "internalType": "bytes32",
          "name": "_messageHash",
          "type": "bytes32"
        }
      ],
      "name": "alertFreeRider",
      "outputs": [],
      "stateMutability": "payable",
      "type": "function"
    },
    {
      "inputs": [],
      "name": "alertVerifierAddress",
      "outputs": [
        {
          "internalType": "address",
          "name": "",
          "type": "address"
        }
      ],
      "stateMutability": "view",
      "type": "function"
    },
    {
      "inputs": [
        {
          "internalType": "uint256",
          "name": "",
          "type": "uint256"
        }
      ],
      "name": "alerts",
      "outputs": [
        {
          "internalType": "bytes32",
          "name": "messageHash",
          "type": "bytes32"
        },
        {
          "internalType": "bool",
          "name": "isFinished",
          "type": "bool"
        },
        {
          "internalType": "bool",
          "name": "isFreeRider",
          "type": "bool"
        },
        {
          "internalType": "address",
          "name": "alerter",
          "type": "address"
        }
      ],
      "stateMutability": "view",
      "type": "function"
    },
    {
      "inputs": [
        {
          "internalType": "address",
          "name": "",
          "type": "address"
        }
      ],
      "name": "balances",
      "outputs": [
        {
          "internalType": "uint256",
          "name": "",
          "type": "uint256"
        }
      ],
      "stateMutability": "view",
      "type": "function"
    },
    {
      "inputs": [
        {
          "internalType": "string",
          "name": "_receiverPublicKey",
          "type": "string"
        },
        {
          "internalType": "bytes32",
          "name": "_messageHash",
          "type": "bytes32"
        },
        {
          "internalType": "address",
          "name": "_storeNodeAddress",
          "type": "address"
        },
        {
          "internalType": "uint256",
          "name": "_storeTime",
          "type": "uint256"
        }
      ],
      "name": "broadcastMessage",
      "outputs": [],
      "stateMutability": "payable",
      "type": "function"
    },
    {
      "inputs": [
        {
          "internalType": "bytes32",
          "name": "_messageHash",
          "type": "bytes32"
        }
      ],
      "name": "cancelBroadcast",
      "outputs": [],
      "stateMutability": "nonpayable",
      "type": "function"
    },
    {
      "inputs": [
        {
          "internalType": "bytes32",
          "name": "_messageHash",
          "type": "bytes32"
        },
        {
          "internalType": "string",
          "name": "_dataUrl",
          "type": "string"
        }
      ],
      "name": "changeMessageUrl",
      "outputs": [],
      "stateMutability": "nonpayable",
      "type": "function"
    },
    {
      "inputs": [
        {
          "internalType": "string",
          "name": "publicKey",
          "type": "string"
        }
      ],
      "name": "changeRsaPublicKey",
      "outputs": [],
      "stateMutability": "nonpayable",
      "type": "function"
    },
    {
      "inputs": [],
      "name": "depositNodeStake",
      "outputs": [],
      "stateMutability": "payable",
      "type": "function"
    },
    {
      "inputs": [
        {
          "internalType": "bytes32",
          "name": "_messageHash",
          "type": "bytes32"
        }
      ],
      "name": "getReward",
      "outputs": [],
      "stateMutability": "nonpayable",
      "type": "function"
    },
    {
      "inputs": [],
      "name": "lastAlert",
      "outputs": [
        {
          "internalType": "uint256",
          "name": "",
          "type": "uint256"
        }
      ],
      "stateMutability": "view",
      "type": "function"
    },
    {
      "inputs": [
        {
          "internalType": "bytes32",
          "name": "",
          "type": "bytes32"
        }
      ],
      "name": "messages",
      "outputs": [
        {
          "internalType": "address",
          "name": "senderAddress",
          "type": "address"
        },
        {
          "internalType": "string",
          "name": "receiverPublicKey",
          "type": "string"
        },
        {
          "internalType": "bytes32",
          "name": "messageHash",
          "type": "bytes32"
        },
        {
          "internalType": "address",
          "name": "storeNodeAddress",
          "type": "address"
        },
        {
          "internalType": "uint256",
          "name": "storeTime",
          "type": "uint256"
        },
        {
          "internalType": "uint256",
          "name": "reward",
          "type": "uint256"
        },
        {
          "internalType": "string",
          "name": "dataUrl",
          "type": "string"
        },
        {
          "internalType": "uint256",
          "name": "endTime",
          "type": "uint256"
        },
        {
          "internalType": "bool",
          "name": "finished",
          "type": "bool"
        },
        {
          "internalType": "uint256",
          "name": "lastSlashTime",
          "type": "uint256"
        },
        {
          "internalType": "bool",
          "name": "isAlerted",
          "type": "bool"
        }
      ],
      "stateMutability": "view",
      "type": "function"
    },
    {
      "inputs": [],
      "name": "mockWithdrawAllBalance",
      "outputs": [],
      "stateMutability": "nonpayable",
      "type": "function"
    },
    {
      "inputs": [],
      "name": "owner",
      "outputs": [
        {
          "internalType": "address",
          "name": "",
          "type": "address"
        }
      ],
      "stateMutability": "view",
      "type": "function"
    },
    {
      "inputs": [
        {
          "internalType": "address",
          "name": "",
          "type": "address"
        }
      ],
      "name": "rsaKeys",
      "outputs": [
        {
          "internalType": "string",
          "name": "",
          "type": "string"
        }
      ],
      "stateMutability": "view",
      "type": "function"
    },
    {
      "inputs": [
        {
          "internalType": "address",
          "name": "_address",
          "type": "address"
        }
      ],
      "name": "setAlertVerifier",
      "outputs": [],
      "stateMutability": "nonpayable",
      "type": "function"
    },
    {
      "inputs": [
        {
          "internalType": "address",
          "name": "",
          "type": "address"
        }
      ],
      "name": "storeNodes",
      "outputs": [
        {
          "internalType": "uint256",
          "name": "stakeBalance",
          "type": "uint256"
        },
        {
          "internalType": "string",
          "name": "messageRelayAPI",
          "type": "string"
        },
        {
          "internalType": "uint256",
          "name": "activeStores",
          "type": "uint256"
        },
        {
          "internalType": "uint256",
          "name": "price",
          "type": "uint256"
        }
      ],
      "stateMutability": "view",
      "type": "function"
    },
    {
      "inputs": [
        {
          "internalType": "uint256",
          "name": "id",
          "type": "uint256"
        },
        {
          "internalType": "bool",
          "name": "result",
          "type": "bool"
        }
      ],
      "name": "submitAvailabilityProof",
      "outputs": [],
      "stateMutability": "nonpayable",
      "type": "function"
    },
    {
      "inputs": [
        {
          "internalType": "string",
          "name": "messageUrl",
          "type": "string"
        }
      ],
      "name": "updateMessageUrl",
      "outputs": [],
      "stateMutability": "nonpayable",
      "type": "function"
    },
    {
      "inputs": [
        {
          "internalType": "string",
          "name": "messageUrl",
          "type": "string"
        },
        {
          "internalType": "uint256",
          "name": "price",
          "type": "uint256"
        }
      ],
      "name": "updateNode",
      "outputs": [],
      "stateMutability": "payable",
      "type": "function"
    },
    {
      "inputs": [],
      "name": "withdrawBalance",
      "outputs": [],
      "stateMutability": "nonpayable",
      "type": "function"
    },
    {
      "inputs": [
        {
          "internalType": "uint256",
          "name": "amount",
          "type": "uint256"
        }
      ],
      "name": "withdrawNodeStake",
      "outputs": [],
      "stateMutability": "nonpayable",
      "type": "function"
    }
  ],
  "bytecode": "0x6080604052600060085534801561001557600080fd5b5033600360006101000a81548173ffffffffffffffffffffffffffffffffffffffff021916908373ffffffffffffffffffffffffffffffffffffffff160217905550613a51806100666000396000f3fe6080604052600436106101b75760003560e01c8063762fd7ce116100ec578063d065ee001161008a578063f04e0bc611610064578063f04e0bc6146105aa578063f07488af146105d3578063faf5625f146105fc578063fca742cf14610627576101b7565b8063d065ee0014610559578063e005a1c714610584578063ed0b470d146105a0576101b7565b8063935d02af116100c6578063935d02af146104c55780639859ce6a146104f0578063b2bb4f9114610519578063ba20050d14610530576101b7565b8063762fd7ce146104345780638da5cb5b146104715780638e47987d1461049c576101b7565b806327ed7188116101595780634ce56297116101335780634ce56297146103985780634d06595a146103d85780635fd8c710146103f457806363fed9a41461040b576101b7565b806327ed7188146102fd5780632bbd59ca146103285780632ca662041461036f576101b7565b806317b5b6971161019557806317b5b697146102525780631edde6f41461027b5780631f786bc2146102a457806327e235e3146102c0576101b7565b806302168876146101bc5780630843d96c146101e7578063171d073a14610212575b600080fd5b3480156101c857600080fd5b506101d1610652565b6040516101de9190612764565b60405180910390f35b3480156101f357600080fd5b506101fc610678565b6040516102099190612798565b60405180910390f35b34801561021e57600080fd5b50610239600480360381019061023491906127e9565b61067e565b604051610249949392919061284a565b60405180910390f35b34801561025e57600080fd5b50610279600480360381019061027491906127e9565b6106e8565b005b34801561028757600080fd5b506102a2600480360381019061029d9190612920565b610895565b005b6102be60048036038101906102b991906129ac565b610b2d565b005b3480156102cc57600080fd5b506102e760048036038101906102e29190612a34565b610eba565b6040516102f49190612798565b60405180910390f35b34801561030957600080fd5b50610312610ed2565b60405161031f9190612798565b60405180910390f35b34801561033457600080fd5b5061034f600480360381019061034a9190612a61565b610edd565b6040516103669b9a99989796959493929190612b1e565b60405180910390f35b34801561037b57600080fd5b5061039660048036038101906103919190612bd7565b6110a1565b005b3480156103a457600080fd5b506103bf60048036038101906103ba9190612a34565b6110f3565b6040516103cf9493929190612c24565b60405180910390f35b6103f260048036038101906103ed9190612c70565b6111ab565b005b34801561040057600080fd5b50610409611331565b005b34801561041757600080fd5b50610432600480360381019061042d9190612a61565b611404565b005b34801561044057600080fd5b5061045b60048036038101906104569190612a34565b611821565b6040516104689190612cd0565b60405180910390f35b34801561047d57600080fd5b506104866118c1565b6040516104939190612764565b60405180910390f35b3480156104a857600080fd5b506104c360048036038101906104be9190612bd7565b6118e7565b005b3480156104d157600080fd5b506104da61193d565b6040516104e79190612798565b60405180910390f35b3480156104fc57600080fd5b5061051760048036038101906105129190612920565b611948565b005b34801561052557600080fd5b5061052e611a63565b005b34801561053c57600080fd5b5061055760048036038101906105529190612a34565b611b3c565b005b34801561056557600080fd5b5061056e611c10565b60405161057b9190612798565b60405180910390f35b61059e60048036038101906105999190612a61565b611c16565b005b6105a8611eda565b005b3480156105b657600080fd5b506105d160048036038101906105cc9190612a61565b611fc4565b005b3480156105df57600080fd5b506105fa60048036038101906105f59190612d1e565b612385565b005b34801561060857600080fd5b5061061161270c565b60405161061e9190612798565b60405180910390f35b34801561063357600080fd5b5061063c612718565b6040516106499190612798565b60405180910390f35b600160009054906101000a900473ffffffffffffffffffffffffffffffffffffffff1681565b60085481565b60076020528060005260406000206000915090508060000154908060010160009054906101000a900460ff16908060010160019054906101000a900460ff16908060010160029054906101000a900473ffffffffffffffffffffffffffffffffffffffff16905084565b6000600560003373ffffffffffffffffffffffffffffffffffffffff1673ffffffffffffffffffffffffffffffffffffffff168152602001908152602001600020600201541461076d576040517f08c379a000000000000000000000000000000000000000000000000000000000815260040161076490612dd0565b60405180910390fd5b80600560003373ffffffffffffffffffffffffffffffffffffffff1673ffffffffffffffffffffffffffffffffffffffff1681526020019081526020016000206000015410156107f2576040517f08c379a00000000000000000000000000000000000000000000000000000000081526004016107e990612e3c565b60405180910390fd5b80600560003373ffffffffffffffffffffffffffffffffffffffff1673ffffffffffffffffffffffffffffffffffffffff16815260200190815260200160002060000160008282546108449190612e8b565b925050819055503373ffffffffffffffffffffffffffffffffffffffff166108fc829081150290604051600060405180830381858888f19350505050158015610891573d6000803e3d6000fd5b5050565b60006004600085815260200190815260200160002090503373ffffffffffffffffffffffffffffffffffffffff168160030160009054906101000a900473ffffffffffffffffffffffffffffffffffffffff1673ffffffffffffffffffffffffffffffffffffffff161461093e576040517f08c379a000000000000000000000000000000000000000000000000000000000815260040161093590612f0b565b60405180910390fd5b600015158160080160009054906101000a900460ff16151514610996576040517f08c379a000000000000000000000000000000000000000000000000000000000815260040161098d90612f77565b60405180910390fd5b66b1a2bc2ec50000600560003373ffffffffffffffffffffffffffffffffffffffff1673ffffffffffffffffffffffffffffffffffffffff168152602001908152602001600020600001541015610a22576040517f08c379a0000000000000000000000000000000000000000000000000000000008152600401610a1990612fe3565b60405180910390fd5b8282826006019182610a35929190613249565b50806004015442610a469190613319565b8160070181905550600560003373ffffffffffffffffffffffffffffffffffffffff1673ffffffffffffffffffffffffffffffffffffffff1681526020019081526020016000206002016000815480929190610aa19061334d565b919050555080600101604051610ab79190613423565b6040518091039020848260000160009054906101000a900473ffffffffffffffffffffffffffffffffffffffff1673ffffffffffffffffffffffffffffffffffffffff167fbe368e40acb9b0e4a0df272c425311903d3baaffe652d8ee61f59ea287b5fa4260405160405180910390a450505050565b600073ffffffffffffffffffffffffffffffffffffffff166004600085815260200190815260200160002060000160009054906101000a900473ffffffffffffffffffffffffffffffffffffffff1673ffffffffffffffffffffffffffffffffffffffff1614610bd2576040517f08c379a0000000000000000000000000000000000000000000000000000000008152600401610bc990613486565b60405180910390fd5b600560008373ffffffffffffffffffffffffffffffffffffffff1673ffffffffffffffffffffffffffffffffffffffff16815260200190815260200160002060030154341015610c57576040517f08c379a0000000000000000000000000000000000000000000000000000000008152600401610c4e906134f2565b60405180910390fd5b6040518061016001604052803373ffffffffffffffffffffffffffffffffffffffff16815260200186868080601f016020809104026020016040519081016040528093929190818152602001838380828437600081840152601f19601f8201169050808301925050505050505081526020018481526020018373ffffffffffffffffffffffffffffffffffffffff1681526020018281526020013481526020016040518060200160405280600081525081526020016000815260200160001515815260200160008152602001600015158152506004600085815260200190815260200160002060008201518160000160006101000a81548173ffffffffffffffffffffffffffffffffffffffff021916908373ffffffffffffffffffffffffffffffffffffffff1602179055506020820151816001019081610d999190613512565b506040820151816002015560608201518160030160006101000a81548173ffffffffffffffffffffffffffffffffffffffff021916908373ffffffffffffffffffffffffffffffffffffffff1602179055506080820151816004015560a0820151816005015560c0820151816006019081610e149190613512565b5060e082015181600701556101008201518160080160006101000a81548160ff021916908315150217905550610120820151816009015561014082015181600a0160006101000a81548160ff021916908315150217905550905050828273ffffffffffffffffffffffffffffffffffffffff167f30c85591604e6a247e42d9c4bba378cabaa08555aa8275acd74d417762f0b1f760405160405180910390a35050505050565b60066020528060005260406000206000915090505481565b66b1a2bc2ec5000081565b60046020528060005260406000206000915090508060000160009054906101000a900473ffffffffffffffffffffffffffffffffffffffff1690806001018054610f269061306c565b80601f0160208091040260200160405190810160405280929190818152602001828054610f529061306c565b8015610f9f5780601f10610f7457610100808354040283529160200191610f9f565b820191906000526020600020905b815481529060010190602001808311610f8257829003601f168201915b5050505050908060020154908060030160009054906101000a900473ffffffffffffffffffffffffffffffffffffffff1690806004015490806005015490806006018054610fec9061306c565b80601f01602080910402602001604051908101604052809291908181526020018280546110189061306c565b80156110655780601f1061103a57610100808354040283529160200191611065565b820191906000526020600020905b81548152906001019060200180831161104857829003601f168201915b5050505050908060070154908060080160009054906101000a900460ff169080600901549080600a0160009054906101000a900460ff1690508b565b81816000803373ffffffffffffffffffffffffffffffffffffffff1673ffffffffffffffffffffffffffffffffffffffff16815260200190815260200160002091826110ee929190613249565b505050565b600560205280600052604060002060009150905080600001549080600101805461111c9061306c565b80601f01602080910402602001604051908101604052809291908181526020018280546111489061306c565b80156111955780601f1061116a57610100808354040283529160200191611195565b820191906000526020600020905b81548152906001019060200180831161117857829003601f168201915b5050505050908060020154908060030154905084565b34600560003373ffffffffffffffffffffffffffffffffffffffff1673ffffffffffffffffffffffffffffffffffffffff16815260200190815260200160002060000160008282546111fd9190613319565b925050819055508282600560003373ffffffffffffffffffffffffffffffffffffffff1673ffffffffffffffffffffffffffffffffffffffff1681526020019081526020016000206001019182611255929190613249565b5080600560003373ffffffffffffffffffffffffffffffffffffffff1673ffffffffffffffffffffffffffffffffffffffff168152602001908152602001600020600301819055503373ffffffffffffffffffffffffffffffffffffffff167f995304eade4a0965f958092d34f605078b5a4b20095a5a7b0abd1db2ee2f872e600560003373ffffffffffffffffffffffffffffffffffffffff1673ffffffffffffffffffffffffffffffffffffffff1681526020019081526020016000206001016040516113249190613668565b60405180910390a2505050565b6000600660003373ffffffffffffffffffffffffffffffffffffffff1673ffffffffffffffffffffffffffffffffffffffff1681526020019081526020016000205490506000600660003373ffffffffffffffffffffffffffffffffffffffff1673ffffffffffffffffffffffffffffffffffffffff168152602001908152602001600020819055503373ffffffffffffffffffffffffffffffffffffffff166108fc829081150290604051600060405180830381858888f19350505050158015611400573d6000803e3d6000fd5b5050565b600060046000838152602001908152602001600020604051806101600160405290816000820160009054906101000a900473ffffffffffffffffffffffffffffffffffffffff1673ffffffffffffffffffffffffffffffffffffffff1673ffffffffffffffffffffffffffffffffffffffff16815260200160018201805461148b9061306c565b80601f01602080910402602001604051908101604052809291908181526020018280546114b79061306c565b80156115045780601f106114d957610100808354040283529160200191611504565b820191906000526020600020905b8154815290600101906020018083116114e757829003601f168201915b50505050508152602001600282015481526020016003820160009054906101000a900473ffffffffffffffffffffffffffffffffffffffff1673ffffffffffffffffffffffffffffffffffffffff1673ffffffffffffffffffffffffffffffffffffffff16815260200160048201548152602001600582015481526020016006820180546115919061306c565b80601f01602080910402602001604051908101604052809291908181526020018280546115bd9061306c565b801561160a5780601f106115df5761010080835404028352916020019161160a565b820191906000526020600020905b8154815290600101906020018083116115ed57829003601f168201915b50505050508152602001600782015481526020016008820160009054906101000a900460ff1615151515815260200160098201548152602001600a820160009054906101000a900460ff16151515158152505090503373ffffffffffffffffffffffffffffffffffffffff16816060015173ffffffffffffffffffffffffffffffffffffffff16146116d1576040517f08c379a00000000000000000000000000000000000000000000000000000000081526004016116c890612f0b565b60405180910390fd5b8060e00151421015611718576040517f08c379a000000000000000000000000000000000000000000000000000000000815260040161170f906136d6565b60405180910390fd5b60001515816101000151151514611764576040517f08c379a000000000000000000000000000000000000000000000000000000000815260040161175b90612f77565b60405180910390fd5b600181610100019015159081151581525050600560003373ffffffffffffffffffffffffffffffffffffffff1673ffffffffffffffffffffffffffffffffffffffff16815260200190815260200160002060020160008154809291906117c9906136f6565b9190505550806060015173ffffffffffffffffffffffffffffffffffffffff166108fc8260a001519081150290604051600060405180830381858888f1935050505015801561181c573d6000803e3d6000fd5b505050565b600060205280600052604060002060009150905080546118409061306c565b80601f016020809104026020016040519081016040528092919081815260200182805461186c9061306c565b80156118b95780601f1061188e576101008083540402835291602001916118b9565b820191906000526020600020905b81548152906001019060200180831161189c57829003601f168201915b505050505081565b600360009054906101000a900473ffffffffffffffffffffffffffffffffffffffff1681565b8181600560003373ffffffffffffffffffffffffffffffffffffffff1673ffffffffffffffffffffffffffffffffffffffff1681526020019081526020016000206001019182611938929190613249565b505050565b662386f26fc1000081565b60006004600085815260200190815260200160002090503373ffffffffffffffffffffffffffffffffffffffff168160030160009054906101000a900473ffffffffffffffffffffffffffffffffffffffff1673ffffffffffffffffffffffffffffffffffffffff16146119f1576040517f08c379a00000000000000000000000000000000000000000000000000000000081526004016119e890612f0b565b60405180910390fd5b600015158160080160009054906101000a900460ff16151514611a49576040517f08c379a0000000000000000000000000000000000000000000000000000000008152600401611a4090612f77565b60405180910390fd5b8282826006019182611a5c929190613249565b5050505050565b600360009054906101000a900473ffffffffffffffffffffffffffffffffffffffff1673ffffffffffffffffffffffffffffffffffffffff163373ffffffffffffffffffffffffffffffffffffffff1614611af3576040517f08c379a0000000000000000000000000000000000000000000000000000000008152600401611aea9061376b565b60405180910390fd5b3373ffffffffffffffffffffffffffffffffffffffff166108fc479081150290604051600060405180830381858888f19350505050158015611b39573d6000803e3d6000fd5b50565b600360009054906101000a900473ffffffffffffffffffffffffffffffffffffffff1673ffffffffffffffffffffffffffffffffffffffff163373ffffffffffffffffffffffffffffffffffffffff1614611bcc576040517f08c379a0000000000000000000000000000000000000000000000000000000008152600401611bc39061376b565b60405180910390fd5b80600160006101000a81548173ffffffffffffffffffffffffffffffffffffffff021916908373ffffffffffffffffffffffffffffffffffffffff16021790555050565b61025881565b6000151560046000838152602001908152602001600020600a0160009054906101000a900460ff16151514611c80576040517f08c379a0000000000000000000000000000000000000000000000000000000008152600401611c77906137d7565b60405180910390fd5b662386f26fc10000341015611cca576040517f08c379a0000000000000000000000000000000000000000000000000000000008152600401611cc190613843565b60405180910390fd5b6102586004600083815260200190815260200160002060090154611cee9190613319565b421015611cfa57600080fd5b600160046000838152602001908152602001600020600a0160006101000a81548160ff02191690831515021790555060405180608001604052808281526020016000151581526020016000151581526020013373ffffffffffffffffffffffffffffffffffffffff168152506007600060085481526020019081526020016000206000820151816000015560208201518160010160006101000a81548160ff02191690831515021790555060408201518160010160016101000a81548160ff02191690831515021790555060608201518160010160026101000a81548173ffffffffffffffffffffffffffffffffffffffff021916908373ffffffffffffffffffffffffffffffffffffffff160217905550905050600160009054906101000a900473ffffffffffffffffffffffffffffffffffffffff1673ffffffffffffffffffffffffffffffffffffffff16634efbc0b2662386f26fc1000083600460008681526020019081526020016000206006016008546040518563ffffffff1660e01b8152600401611e8d93929190613863565b6000604051808303818588803b158015611ea657600080fd5b505af1158015611eba573d6000803e3d6000fd5b505050505060086000815480929190611ed29061334d565b919050555050565b3373ffffffffffffffffffffffffffffffffffffffff167f995304eade4a0965f958092d34f605078b5a4b20095a5a7b0abd1db2ee2f872e600560003373ffffffffffffffffffffffffffffffffffffffff1673ffffffffffffffffffffffffffffffffffffffff168152602001908152602001600020600101604051611f619190613668565b60405180910390a234600560003373ffffffffffffffffffffffffffffffffffffffff1673ffffffffffffffffffffffffffffffffffffffff1681526020019081526020016000206000016000828254611fbb9190613319565b92505081905550565b600060046000838152602001908152602001600020604051806101600160405290816000820160009054906101000a900473ffffffffffffffffffffffffffffffffffffffff1673ffffffffffffffffffffffffffffffffffffffff1673ffffffffffffffffffffffffffffffffffffffff16815260200160018201805461204b9061306c565b80601f01602080910402602001604051908101604052809291908181526020018280546120779061306c565b80156120c45780601f10612099576101008083540402835291602001916120c4565b820191906000526020600020905b8154815290600101906020018083116120a757829003601f168201915b50505050508152602001600282015481526020016003820160009054906101000a900473ffffffffffffffffffffffffffffffffffffffff1673ffffffffffffffffffffffffffffffffffffffff1673ffffffffffffffffffffffffffffffffffffffff16815260200160048201548152602001600582015481526020016006820180546121519061306c565b80601f016020809104026020016040519081016040528092919081815260200182805461217d9061306c565b80156121ca5780601f1061219f576101008083540402835291602001916121ca565b820191906000526020600020905b8154815290600101906020018083116121ad57829003601f168201915b50505050508152602001600782015481526020016008820160009054906101000a900460ff1615151515815260200160098201548152602001600a820160009054906101000a900460ff16151515158152505090503373ffffffffffffffffffffffffffffffffffffffff16816000015173ffffffffffffffffffffffffffffffffffffffff1614612291576040517f08c379a0000000000000000000000000000000000000000000000000000000008152600401612288906138ed565b60405180910390fd5b60008160e00151146122d8576040517f08c379a00000000000000000000000000000000000000000000000000000000081526004016122cf90613959565b60405180910390fd5b60001515816101000151151514612324576040517f08c379a000000000000000000000000000000000000000000000000000000000815260040161231b90612f77565b60405180910390fd5b6001816101000190151590811515815250503373ffffffffffffffffffffffffffffffffffffffff166108fc8260a001519081150290604051600060405180830381858888f19350505050158015612380573d6000803e3d6000fd5b505050565b600160009054906101000a900473ffffffffffffffffffffffffffffffffffffffff1673ffffffffffffffffffffffffffffffffffffffff163373ffffffffffffffffffffffffffffffffffffffff1614612415576040517f08c379a000000000000000000000000000000000000000000000000000000000815260040161240c90612f0b565b60405180910390fd5b600060076000848152602001908152602001600020604051806080016040529081600082015481526020016001820160009054906101000a900460ff161515151581526020016001820160019054906101000a900460ff161515151581526020016001820160029054906101000a900473ffffffffffffffffffffffffffffffffffffffff1673ffffffffffffffffffffffffffffffffffffffff1673ffffffffffffffffffffffffffffffffffffffff168152505090506001816020019015159081151581525050818160400190151590811515815250506000600460008360000151815260200190815260200160002090506000600560008360030160009054906101000a900473ffffffffffffffffffffffffffffffffffffffff1673ffffffffffffffffffffffffffffffffffffffff1673ffffffffffffffffffffffffffffffffffffffff1681526020019081526020016000209050831561268b57662386f26fc100008160000154106125af57662386f26fc100008160000160008282546125a39190612e8b565b925050819055506125ba565b600081600001819055505b4282600901819055506005600483600501546125d69190613979565b6125e091906139ea565b600260008282546125f19190613319565b9250508190555060056001836005015461260b9190613979565b61261591906139ea565b662386f26fc100006126279190613319565b60066000856060015173ffffffffffffffffffffffffffffffffffffffff1673ffffffffffffffffffffffffffffffffffffffff16815260200190815260200160002060008282546126799190613319565b92505081905550600082600501819055505b836007600087815260200190815260200160002060010160016101000a81548160ff02191690831515021790555060016007600087815260200190815260200160002060010160006101000a81548160ff021916908315150217905550600082600a0160006101000a81548160ff0219169083151502179055505050505050565b67016345785d8a000081565b662386f26fc1000081565b600073ffffffffffffffffffffffffffffffffffffffff82169050919050565b600061274e82612723565b9050919050565b61275e81612743565b82525050565b60006020820190506127796000830184612755565b92915050565b6000819050919050565b6127928161277f565b82525050565b60006020820190506127ad6000830184612789565b92915050565b600080fd5b600080fd5b6127c68161277f565b81146127d157600080fd5b50565b6000813590506127e3816127bd565b92915050565b6000602082840312156127ff576127fe6127b3565b5b600061280d848285016127d4565b91505092915050565b6000819050919050565b61282981612816565b82525050565b60008115159050919050565b6128448161282f565b82525050565b600060808201905061285f6000830187612820565b61286c602083018661283b565b612879604083018561283b565b6128866060830184612755565b95945050505050565b61289881612816565b81146128a357600080fd5b50565b6000813590506128b58161288f565b92915050565b600080fd5b600080fd5b600080fd5b60008083601f8401126128e0576128df6128bb565b5b8235905067ffffffffffffffff8111156128fd576128fc6128c0565b5b602083019150836001820283011115612919576129186128c5565b5b9250929050565b600080600060408486031215612939576129386127b3565b5b6000612947868287016128a6565b935050602084013567ffffffffffffffff811115612968576129676127b8565b5b612974868287016128ca565b92509250509250925092565b61298981612743565b811461299457600080fd5b50565b6000813590506129a681612980565b92915050565b6000806000806000608086880312156129c8576129c76127b3565b5b600086013567ffffffffffffffff8111156129e6576129e56127b8565b5b6129f2888289016128ca565b95509550506020612a05888289016128a6565b9350506040612a1688828901612997565b9250506060612a27888289016127d4565b9150509295509295909350565b600060208284031215612a4a57612a496127b3565b5b6000612a5884828501612997565b91505092915050565b600060208284031215612a7757612a766127b3565b5b6000612a85848285016128a6565b91505092915050565b600081519050919050565b600082825260208201905092915050565b60005b83811015612ac8578082015181840152602081019050612aad565b60008484015250505050565b6000601f19601f8301169050919050565b6000612af082612a8e565b612afa8185612a99565b9350612b0a818560208601612aaa565b612b1381612ad4565b840191505092915050565b600061016082019050612b34600083018e612755565b8181036020830152612b46818d612ae5565b9050612b55604083018c612820565b612b62606083018b612755565b612b6f608083018a612789565b612b7c60a0830189612789565b81810360c0830152612b8e8188612ae5565b9050612b9d60e0830187612789565b612bab61010083018661283b565b612bb9610120830185612789565b612bc761014083018461283b565b9c9b505050505050505050505050565b60008060208385031215612bee57612bed6127b3565b5b600083013567ffffffffffffffff811115612c0c57612c0b6127b8565b5b612c18858286016128ca565b92509250509250929050565b6000608082019050612c396000830187612789565b8181036020830152612c4b8186612ae5565b9050612c5a6040830185612789565b612c676060830184612789565b95945050505050565b600080600060408486031215612c8957612c886127b3565b5b600084013567ffffffffffffffff811115612ca757612ca66127b8565b5b612cb3868287016128ca565b93509350506020612cc6868287016127d4565b9150509250925092565b60006020820190508181036000830152612cea8184612ae5565b905092915050565b612cfb8161282f565b8114612d0657600080fd5b50565b600081359050612d1881612cf2565b92915050565b60008060408385031215612d3557612d346127b3565b5b6000612d43858286016127d4565b9250506020612d5485828601612d09565b9150509250929050565b7f74686572652073686f756c64206265206e6f20616374697665206d657373616760008201527f6573000000000000000000000000000000000000000000000000000000000000602082015250565b6000612dba602283612a99565b9150612dc582612d5e565b604082019050919050565b60006020820190508181036000830152612de981612dad565b9050919050565b7f6e6f7420656e6f7567682062616c616e63650000000000000000000000000000600082015250565b6000612e26601283612a99565b9150612e3182612df0565b602082019050919050565b60006020820190508181036000830152612e5581612e19565b9050919050565b7f4e487b7100000000000000000000000000000000000000000000000000000000600052601160045260246000fd5b6000612e968261277f565b9150612ea18361277f565b9250828203905081811115612eb957612eb8612e5c565b5b92915050565b7f6e6f7420617574686f72697a6564000000000000000000000000000000000000600082015250565b6000612ef5600e83612a99565b9150612f0082612ebf565b602082019050919050565b60006020820190508181036000830152612f2481612ee8565b9050919050565b7f616c72656164792066696e697368656400000000000000000000000000000000600082015250565b6000612f61601083612a99565b9150612f6c82612f2b565b602082019050919050565b60006020820190508181036000830152612f9081612f54565b9050919050565b7f6e6f7420656e6f756768207374616b6500000000000000000000000000000000600082015250565b6000612fcd601083612a99565b9150612fd882612f97565b602082019050919050565b60006020820190508181036000830152612ffc81612fc0565b9050919050565b600082905092915050565b7f4e487b7100000000000000000000000000000000000000000000000000000000600052604160045260246000fd5b7f4e487b7100000000000000000000000000000000000000000000000000000000600052602260045260246000fd5b6000600282049050600182168061308457607f821691505b6020821081036130975761309661303d565b5b50919050565b60008190508160005260206000209050919050565b60006020601f8301049050919050565b600082821b905092915050565b6000600883026130ff7fffffffffffffffffffffffffffffffffffffffffffffffffffffffffffffffff826130c2565b61310986836130c2565b95508019841693508086168417925050509392505050565b6000819050919050565b600061314661314161313c8461277f565b613121565b61277f565b9050919050565b6000819050919050565b6131608361312b565b61317461316c8261314d565b8484546130cf565b825550505050565b600090565b61318961317c565b613194818484613157565b505050565b5b818110156131b8576131ad600082613181565b60018101905061319a565b5050565b601f8211156131fd576131ce8161309d565b6131d7846130b2565b810160208510156131e6578190505b6131fa6131f2856130b2565b830182613199565b50505b505050565b600082821c905092915050565b600061322060001984600802613202565b1980831691505092915050565b6000613239838361320f565b9150826002028217905092915050565b6132538383613003565b67ffffffffffffffff81111561326c5761326b61300e565b5b613276825461306c565b6132818282856131bc565b6000601f8311600181146132b0576000841561329e578287013590505b6132a8858261322d565b865550613310565b601f1984166132be8661309d565b60005b828110156132e6578489013582556001820191506020850194506020810190506132c1565b8683101561330357848901356132ff601f89168261320f565b8355505b6001600288020188555050505b50505050505050565b60006133248261277f565b915061332f8361277f565b925082820190508082111561334757613346612e5c565b5b92915050565b60006133588261277f565b91507fffffffffffffffffffffffffffffffffffffffffffffffffffffffffffffffff820361338a57613389612e5c565b5b600182019050919050565b600081905092915050565b600081546133ad8161306c565b6133b78186613395565b945060018216600081146133d257600181146133e75761341a565b60ff198316865281151582028601935061341a565b6133f08561309d565b60005b83811015613412578154818901526001820191506020810190506133f3565b838801955050505b50505092915050565b600061342f82846133a0565b915081905092915050565b7f616c72656164792062726f616463617374656400000000000000000000000000600082015250565b6000613470601383612a99565b915061347b8261343a565b602082019050919050565b6000602082019050818103600083015261349f81613463565b9050919050565b7f6e6f7420656e6f75676820707269636500000000000000000000000000000000600082015250565b60006134dc601083612a99565b91506134e7826134a6565b602082019050919050565b6000602082019050818103600083015261350b816134cf565b9050919050565b61351b82612a8e565b67ffffffffffffffff8111156135345761353361300e565b5b61353e825461306c565b6135498282856131bc565b600060209050601f83116001811461357c576000841561356a578287015190505b613574858261322d565b8655506135dc565b601f19841661358a8661309d565b60005b828110156135b25784890151825560018201915060208501945060208101905061358d565b868310156135cf57848901516135cb601f89168261320f565b8355505b6001600288020188555050505b505050505050565b600081546135f18161306c565b6135fb8186612a99565b94506001821660008114613616576001811461362c5761365f565b60ff19831686528115156020028601935061365f565b6136358561309d565b60005b8381101561365757815481890152600182019150602081019050613638565b808801955050505b50505092915050565b6000602082019050818103600083015261368281846135e4565b905092915050565b7f73746f72652074696d65206e6f7420656e646564207965740000000000000000600082015250565b60006136c0601883612a99565b91506136cb8261368a565b602082019050919050565b600060208201905081810360008301526136ef816136b3565b9050919050565b60006137018261277f565b91506000820361371457613713612e5c565b5b600182039050919050565b7f43616c6c6572206973206e6f74206f776e657200000000000000000000000000600082015250565b6000613755601383612a99565b91506137608261371f565b602082019050919050565b6000602082019050818103600083015261378481613748565b9050919050565b7f616c726561647920616c65727465640000000000000000000000000000000000600082015250565b60006137c1600f83612a99565b91506137cc8261378b565b602082019050919050565b600060208201905081810360008301526137f0816137b4565b9050919050565b7f6e6f7420656e6f756768206465706f7369697400000000000000000000000000600082015250565b600061382d601383612a99565b9150613838826137f7565b602082019050919050565b6000602082019050818103600083015261385c81613820565b9050919050565b60006060820190506138786000830186612820565b818103602083015261388a81856135e4565b90506138996040830184612789565b949350505050565b7f6e6f74206f776e65720000000000000000000000000000000000000000000000600082015250565b60006138d7600983612a99565b91506138e2826138a1565b602082019050919050565b60006020820190508181036000830152613906816138ca565b9050919050565b7f62726f6164636173746564206e6f20617574686f72697a6174696f6e00000000600082015250565b6000613943601c83612a99565b915061394e8261390d565b602082019050919050565b6000602082019050818103600083015261397281613936565b9050919050565b60006139848261277f565b915061398f8361277f565b925082820261399d8161277f565b915082820484148315176139b4576139b3612e5c565b5b5092915050565b7f4e487b7100000000000000000000000000000000000000000000000000000000600052601260045260246000fd5b60006139f58261277f565b9150613a008361277f565b925082613a1057613a0f6139bb565b5b82820490509291505056fea264697066735822122045ec9ccfde7d9945f50152e5ab16a4e745f07ac65140bece813edf197a31c82664736f6c63430008130033",
  "linkReferences": {},
  "deployedLinkReferences": {}
}